{
  "_format": "hh-sol-artifact-1",
  "contractName": "ERC721Factory",
  "sourceName": "contracts/ERC721Factory.sol",
  "abi": [
    {
      "inputs": [],
      "stateMutability": "nonpayable",
      "type": "constructor"
    },
    {
      "anonymous": false,
      "inputs": [
        {
          "indexed": true,
          "internalType": "address",
          "name": "from",
          "type": "address"
        },
        {
          "indexed": true,
          "internalType": "address",
          "name": "cloneAdd",
          "type": "address"
        }
      ],
      "name": "CloneCreatedAt",
      "type": "event"
    },
    {
      "inputs": [
        {
          "internalType": "address",
          "name": "",
          "type": "address"
        },
        {
          "internalType": "uint256",
          "name": "",
          "type": "uint256"
        }
      ],
      "name": "ShareHolders",
      "outputs": [
        {
          "internalType": "address",
          "name": "",
          "type": "address"
        }
      ],
      "stateMutability": "view",
      "type": "function"
    },
    {
      "inputs": [],
      "name": "clone",
      "outputs": [
        {
          "internalType": "address",
          "name": "",
          "type": "address"
        }
      ],
      "stateMutability": "view",
      "type": "function"
    },
    {
      "inputs": [
        {
          "internalType": "string",
          "name": "_propertyAddress",
          "type": "string"
        },
        {
          "internalType": "string",
          "name": "_ownerName",
          "type": "string"
        },
        {
          "internalType": "uint256",
          "name": "_totalSupply",
          "type": "uint256"
        },
        {
          "internalType": "uint256",
          "name": "_pricePerToken",
          "type": "uint256"
        },
        {
          "internalType": "uint256",
          "name": "_tokensPerWallet",
          "type": "uint256"
        }
      ],
      "name": "cloneContract",
      "outputs": [
        {
          "internalType": "address",
          "name": "",
          "type": "address"
        }
      ],
      "stateMutability": "nonpayable",
      "type": "function"
    },
    {
      "inputs": [],
      "name": "implementation",
      "outputs": [
        {
          "internalType": "address",
          "name": "",
          "type": "address"
        }
      ],
      "stateMutability": "view",
      "type": "function"
    }
  ],
  "bytecode": "0x608060405234801561001057600080fd5b5060405161001d9061007e565b604051809103906000f080158015610039573d6000803e3d6000fd5b506000806101000a81548173ffffffffffffffffffffffffffffffffffffffff021916908373ffffffffffffffffffffffffffffffffffffffff16021790555061008b565b61439080610a1983390190565b61097f8061009a6000396000f3fe608060405234801561001057600080fd5b506004361061004c5760003560e01c806309ed4607146100515780635c60da1b1461006f5780638013fa9f1461008d578063baf7b03d146100bd575b600080fd5b6100596100ed565b604051610066919061051b565b60405180910390f35b610077610113565b604051610084919061051b565b60405180910390f35b6100a760048036038101906100a291906105ac565b610137565b6040516100b4919061051b565b60405180910390f35b6100d760048036038101906100d29190610732565b610185565b6040516100e4919061051b565b60405180910390f35b600160009054906101000a900473ffffffffffffffffffffffffffffffffffffffff1681565b60008054906101000a900473ffffffffffffffffffffffffffffffffffffffff1681565b6002602052816000526040600020818154811061015357600080fd5b906000526020600020016000915091509054906101000a900473ffffffffffffffffffffffffffffffffffffffff1681565b600061019486868686866101c2565b600160009054906101000a900473ffffffffffffffffffffffffffffffffffffffff16905095945050505050565b6101eb60008054906101000a900473ffffffffffffffffffffffffffffffffffffffff16610405565b600160006101000a81548173ffffffffffffffffffffffffffffffffffffffff021916908373ffffffffffffffffffffffffffffffffffffffff160217905550600160009054906101000a900473ffffffffffffffffffffffffffffffffffffffff1673ffffffffffffffffffffffffffffffffffffffff16637544e6b386868686866040518663ffffffff1660e01b815260040161028e95949392919061087c565b600060405180830381600087803b1580156102a857600080fd5b505af11580156102bc573d6000803e3d6000fd5b50505050600260003373ffffffffffffffffffffffffffffffffffffffff1673ffffffffffffffffffffffffffffffffffffffff168152602001908152602001600020600160009054906101000a900473ffffffffffffffffffffffffffffffffffffffff169080600181540180825580915050600190039060005260206000200160009091909190916101000a81548173ffffffffffffffffffffffffffffffffffffffff021916908373ffffffffffffffffffffffffffffffffffffffff160217905550600160009054906101000a900473ffffffffffffffffffffffffffffffffffffffff1673ffffffffffffffffffffffffffffffffffffffff163373ffffffffffffffffffffffffffffffffffffffff167fe1551f6f36293381ff1deb20a3d00b32e343e92e820f9a6e5e6acfaa8439a19460405160405180910390a35050505050565b60006040517f3d602d80600a3d3981f3363d3d373d3d3d363d7300000000000000000000000081528260601b60148201527f5af43d82803e903d91602b57fd5bf3000000000000000000000000000000000060288201526037816000f0915050600073ffffffffffffffffffffffffffffffffffffffff168173ffffffffffffffffffffffffffffffffffffffff1614156104d5576040517f08c379a00000000000000000000000000000000000000000000000000000000081526004016104cc90610929565b60405180910390fd5b919050565b600073ffffffffffffffffffffffffffffffffffffffff82169050919050565b6000610505826104da565b9050919050565b610515816104fa565b82525050565b6000602082019050610530600083018461050c565b92915050565b6000604051905090565b600080fd5b600080fd5b610553816104fa565b811461055e57600080fd5b50565b6000813590506105708161054a565b92915050565b6000819050919050565b61058981610576565b811461059457600080fd5b50565b6000813590506105a681610580565b92915050565b600080604083850312156105c3576105c2610540565b5b60006105d185828601610561565b92505060206105e285828601610597565b9150509250929050565b600080fd5b600080fd5b6000601f19601f8301169050919050565b7f4e487b7100000000000000000000000000000000000000000000000000000000600052604160045260246000fd5b61063f826105f6565b810181811067ffffffffffffffff8211171561065e5761065d610607565b5b80604052505050565b6000610671610536565b905061067d8282610636565b919050565b600067ffffffffffffffff82111561069d5761069c610607565b5b6106a6826105f6565b9050602081019050919050565b82818337600083830152505050565b60006106d56106d084610682565b610667565b9050828152602081018484840111156106f1576106f06105f1565b5b6106fc8482856106b3565b509392505050565b600082601f830112610719576107186105ec565b5b81356107298482602086016106c2565b91505092915050565b600080600080600060a0868803121561074e5761074d610540565b5b600086013567ffffffffffffffff81111561076c5761076b610545565b5b61077888828901610704565b955050602086013567ffffffffffffffff81111561079957610798610545565b5b6107a588828901610704565b94505060406107b688828901610597565b93505060606107c788828901610597565b92505060806107d888828901610597565b9150509295509295909350565b600081519050919050565b600082825260208201905092915050565b60005b8381101561081f578082015181840152602081019050610804565b8381111561082e576000848401525b50505050565b600061083f826107e5565b61084981856107f0565b9350610859818560208601610801565b610862816105f6565b840191505092915050565b61087681610576565b82525050565b600060a08201905081810360008301526108968188610834565b905081810360208301526108aa8187610834565b90506108b9604083018661086d565b6108c6606083018561086d565b6108d3608083018461086d565b9695505050505050565b7f455243313136373a20637265617465206661696c656400000000000000000000600082015250565b60006109136016836107f0565b915061091e826108dd565b602082019050919050565b6000602082019050818103600083015261094281610906565b905091905056fea2646970667358221220818a9402848efc9b4cb3cd33c5739948b6b352f360160678b618f221fa22593b64736f6c634300080900336080604052600060d15534801561001557600080fd5b5061436b806100256000396000f3fe6080604052600436106101e35760003560e01c80638456cb5911610102578063b88d4fde11610095578063d068cdc511610064578063d068cdc5146106b1578063e31d89e5146106dc578063e985e9c514610707578063f2fde38b14610744576101e3565b8063b88d4fde14610604578063beabacc81461062d578063c87b56dd14610649578063ca1e973814610686576101e3565b806395d89b41116100d157806395d89b411461054857806396f5171314610573578063a22cb465146105b0578063a386e8d6146105d9576101e3565b80638456cb59146104b457806386950d1e146104cb5780638da5cb5b146104f457806391a1cebd1461051f576101e3565b806342842e0e1161017a57806370a082311161014957806370a082311461040c578063715018a6146104495780637544e6b3146104605780637b1b1de614610489576101e3565b806342842e0e146103505780636352211e1461037957806365ac2320146103b657806366440d71146103e1576101e3565b806323b872dd116101b657806323b872dd146102b65780632f52b877146102df5780633f4ba83a1461031d57806340c10f1914610334576101e3565b806301ffc9a7146101e857806306fdde0314610225578063081812fc14610250578063095ea7b31461028d575b600080fd5b3480156101f457600080fd5b5061020f600480360381019061020a9190612b4e565b61076d565b60405161021c9190612b96565b60405180910390f35b34801561023157600080fd5b5061023a61084f565b6040516102479190612c4a565b60405180910390f35b34801561025c57600080fd5b5061027760048036038101906102729190612ca2565b6108e1565b6040516102849190612d10565b60405180910390f35b34801561029957600080fd5b506102b460048036038101906102af9190612d57565b610927565b005b3480156102c257600080fd5b506102dd60048036038101906102d89190612d97565b610a3f565b005b3480156102eb57600080fd5b5061030660048036038101906103019190612dea565b610a9f565b604051610314929190612e26565b60405180910390f35b34801561032957600080fd5b50610332610ac3565b005b61034e60048036038101906103499190612e8d565b610ad5565b005b34801561035c57600080fd5b5061037760048036038101906103729190612d97565b610d09565b005b34801561038557600080fd5b506103a0600480360381019061039b9190612ca2565b610d29565b6040516103ad9190612d10565b60405180910390f35b3480156103c257600080fd5b506103cb610ddb565b6040516103d89190612c4a565b60405180910390f35b3480156103ed57600080fd5b506103f6610e69565b6040516104039190612c4a565b60405180910390f35b34801561041857600080fd5b50610433600480360381019061042e9190612dea565b610ef7565b6040516104409190612ecd565b60405180910390f35b34801561045557600080fd5b5061045e610faf565b005b34801561046c57600080fd5b506104876004803603810190610482919061301d565b610fc3565b005b34801561049557600080fd5b5061049e6111c1565b6040516104ab9190612ecd565b60405180910390f35b3480156104c057600080fd5b506104c96111c7565b005b3480156104d757600080fd5b506104f260048036038101906104ed9190612ca2565b6111d9565b005b34801561050057600080fd5b50610509611378565b6040516105169190612d10565b60405180910390f35b34801561052b57600080fd5b50610546600480360381019061054191906130d0565b6113a2565b005b34801561055457600080fd5b5061055d61158b565b60405161056a9190612c4a565b60405180910390f35b34801561057f57600080fd5b5061059a60048036038101906105959190612d57565b61161d565b6040516105a79190612ecd565b60405180910390f35b3480156105bc57600080fd5b506105d760048036038101906105d2919061313c565b61164e565b005b3480156105e557600080fd5b506105ee611664565b6040516105fb9190612ecd565b60405180910390f35b34801561061057600080fd5b5061062b6004803603810190610626919061321d565b61166e565b005b610647600480360381019061064291906132a0565b6116d0565b005b34801561065557600080fd5b50610670600480360381019061066b9190612ca2565b611a59565b60405161067d9190612c4a565b60405180910390f35b34801561069257600080fd5b5061069b611ac1565b6040516106a89190612ecd565b60405180910390f35b3480156106bd57600080fd5b506106c6611acb565b6040516106d39190612ecd565b60405180910390f35b3480156106e857600080fd5b506106f1611ad1565b6040516106fe9190612ecd565b60405180910390f35b34801561071357600080fd5b5061072e600480360381019061072991906132f3565b611ad7565b60405161073b9190612b96565b60405180910390f35b34801561075057600080fd5b5061076b60048036038101906107669190612dea565b611b6b565b005b60007f80ac58cd000000000000000000000000000000000000000000000000000000007bffffffffffffffffffffffffffffffffffffffffffffffffffffffff1916827bffffffffffffffffffffffffffffffffffffffffffffffffffffffff1916148061083857507f5b5e139f000000000000000000000000000000000000000000000000000000007bffffffffffffffffffffffffffffffffffffffffffffffffffffffff1916827bffffffffffffffffffffffffffffffffffffffffffffffffffffffff1916145b80610848575061084782611be7565b5b9050919050565b60606065805461085e90613362565b80601f016020809104026020016040519081016040528092919081815260200182805461088a90613362565b80156108d75780601f106108ac576101008083540402835291602001916108d7565b820191906000526020600020905b8154815290600101906020018083116108ba57829003601f168201915b5050505050905090565b60006108ec82611c51565b6069600083815260200190815260200160002060009054906101000a900473ffffffffffffffffffffffffffffffffffffffff169050919050565b600061093282610d29565b90508073ffffffffffffffffffffffffffffffffffffffff168373ffffffffffffffffffffffffffffffffffffffff1614156109a3576040517f08c379a000000000000000000000000000000000000000000000000000000000815260040161099a90613406565b60405180910390fd5b8073ffffffffffffffffffffffffffffffffffffffff166109c2611c9c565b73ffffffffffffffffffffffffffffffffffffffff1614806109f157506109f0816109eb611c9c565b611ad7565b5b610a30576040517f08c379a0000000000000000000000000000000000000000000000000000000008152600401610a2790613498565b60405180910390fd5b610a3a8383611ca4565b505050565b610a50610a4a611c9c565b82611d5d565b610a8f576040517f08c379a0000000000000000000000000000000000000000000000000000000008152600401610a869061352a565b60405180910390fd5b610a9a838383611df2565b505050565b60d26020528060005260406000206000915090508060000154908060010154905082565b610acb612059565b610ad3610ac3565b565b8060cd541015610b1a576040517f08c379a0000000000000000000000000000000000000000000000000000000008152600401610b1190613596565b60405180910390fd5b8060cf541015610b5f576040517f08c379a0000000000000000000000000000000000000000000000000000000008152600401610b5690613628565b60405180910390fd5b60ce5481610b6d9190613677565b341015610baf576040517f08c379a0000000000000000000000000000000000000000000000000000000008152600401610ba69061371d565b60405180910390fd5b6000600190505b818111610c7057610bd4338260d154610bcf919061373d565b6120d7565b60d060003373ffffffffffffffffffffffffffffffffffffffff1673ffffffffffffffffffffffffffffffffffffffff168152602001908152602001600020600160d154610c22919061373d565b9080600181540180825580915050600190039060005260206000200160009091909190915055600160d154610c57919061373d565b60d1819055508080610c6890613793565b915050610bb6565b508060cd54610c7f91906137dc565b60cd819055508173ffffffffffffffffffffffffffffffffffffffff166108fc349081150290604051600060405180830381858888f19350505050158015610ccb573d6000803e3d6000fd5b507f0f6798a560793a54c3bcfe86a93cde1e73087d944c0ea20544137d41213968853382604051610cfd929190613810565b60405180910390a15050565b610d248383836040518060200160405280600081525061166e565b505050565b6000806067600084815260200190815260200160002060009054906101000a900473ffffffffffffffffffffffffffffffffffffffff169050600073ffffffffffffffffffffffffffffffffffffffff168173ffffffffffffffffffffffffffffffffffffffff161415610dd2576040517f08c379a0000000000000000000000000000000000000000000000000000000008152600401610dc990613885565b60405180910390fd5b80915050919050565b60cc8054610de890613362565b80601f0160208091040260200160405190810160405280929190818152602001828054610e1490613362565b8015610e615780601f10610e3657610100808354040283529160200191610e61565b820191906000526020600020905b815481529060010190602001808311610e4457829003601f168201915b505050505081565b60cb8054610e7690613362565b80601f0160208091040260200160405190810160405280929190818152602001828054610ea290613362565b8015610eef5780601f10610ec457610100808354040283529160200191610eef565b820191906000526020600020905b815481529060010190602001808311610ed257829003601f168201915b505050505081565b60008073ffffffffffffffffffffffffffffffffffffffff168273ffffffffffffffffffffffffffffffffffffffff161415610f68576040517f08c379a0000000000000000000000000000000000000000000000000000000008152600401610f5f90613917565b60405180910390fd5b606860008373ffffffffffffffffffffffffffffffffffffffff1673ffffffffffffffffffffffffffffffffffffffff168152602001908152602001600020549050919050565b610fb7612059565b610fc160006120f5565b565b60008060019054906101000a900460ff16159050808015610ff45750600160008054906101000a900460ff1660ff16105b806110215750611003306121bb565b1580156110205750600160008054906101000a900460ff1660ff16145b5b611060576040517f08c379a0000000000000000000000000000000000000000000000000000000008152600401611057906139a9565b60405180910390fd5b60016000806101000a81548160ff021916908360ff160217905550801561109d576001600060016101000a81548160ff0219169083151502179055505b6111116040518060400160405280600a81526020017f5265616c457374617465000000000000000000000000000000000000000000008152506040518060400160405280600281526020017f52450000000000000000000000000000000000000000000000000000000000008152506121de565b8560cb9080519060200190611127929190612a3f565b508460cc908051906020019061113e929190612a3f565b5060018461114c919061373d565b60cd819055508260ce819055508160cf8190555080156111b95760008060016101000a81548160ff0219169083151502179055507f7f26b83ff96e1f2b6a682f133852f6798a09c465da95921460cefb384740249860016040516111b09190613a1b565b60405180910390a15b505050505050565b60ce5481565b6111cf612059565b6111d76111c7565b565b600060d260003373ffffffffffffffffffffffffffffffffffffffff1673ffffffffffffffffffffffffffffffffffffffff168152602001908152602001600020600001541161125e576040517f08c379a000000000000000000000000000000000000000000000000000000000815260040161125590613a82565b60405180910390fd5b60d260003373ffffffffffffffffffffffffffffffffffffffff1673ffffffffffffffffffffffffffffffffffffffff168152602001908152602001600020600001548110156112e3576040517f08c379a00000000000000000000000000000000000000000000000000000000081526004016112da90613b14565b60405180910390fd5b8060d260003373ffffffffffffffffffffffffffffffffffffffff1673ffffffffffffffffffffffffffffffffffffffff168152602001908152602001600020600001600082825461133591906137dc565b925050819055507fd7d8a397f85cc002af4ce25b0df0dfe88d9cd7cc58b802a3425a5704b9785f48338260405161136d929190613810565b60405180910390a150565b6000609760009054906101000a900473ffffffffffffffffffffffffffffffffffffffff16905090565b600060d060003373ffffffffffffffffffffffffffffffffffffffff1673ffffffffffffffffffffffffffffffffffffffff1681526020019081526020016000208054905011611427576040517f08c379a000000000000000000000000000000000000000000000000000000000815260040161141e90613b14565b60405180910390fd5b60d060003373ffffffffffffffffffffffffffffffffffffffff1673ffffffffffffffffffffffffffffffffffffffff168152602001908152602001600020805490508211156114ac576040517f08c379a00000000000000000000000000000000000000000000000000000000081526004016114a390613b14565b60405180910390fd5b8160d260003373ffffffffffffffffffffffffffffffffffffffff1673ffffffffffffffffffffffffffffffffffffffff16815260200190815260200160002060000160008282546114fe919061373d565b925050819055508060d260003373ffffffffffffffffffffffffffffffffffffffff1673ffffffffffffffffffffffffffffffffffffffff168152602001908152602001600020600101819055507f1f6182c4173d648c005a5ceb902204a4ffe76785e22b4858b11551838ab05cb733838360405161157f93929190613b34565b60405180910390a15050565b60606066805461159a90613362565b80601f01602080910402602001604051908101604052809291908181526020018280546115c690613362565b80156116135780601f106115e857610100808354040283529160200191611613565b820191906000526020600020905b8154815290600101906020018083116115f657829003601f168201915b5050505050905090565b60d0602052816000526040600020818154811061163957600080fd5b90600052602060002001600091509150505481565b611660611659611c9c565b838361223b565b5050565b600060cd54905090565b61167f611679611c9c565b83611d5d565b6116be576040517f08c379a00000000000000000000000000000000000000000000000000000000081526004016116b59061352a565b60405180910390fd5b6116ca848484846123a8565b50505050565b6116d983610ef7565b81101561171b576040517f08c379a000000000000000000000000000000000000000000000000000000000815260040161171290613bb7565b60405180910390fd5b60d260003373ffffffffffffffffffffffffffffffffffffffff1673ffffffffffffffffffffffffffffffffffffffff16815260200190815260200160002060010154816117699190613677565b3410156117ab576040517f08c379a00000000000000000000000000000000000000000000000000000000081526004016117a29061371d565b60405180910390fd5b60005b8181116118f957600060d060008673ffffffffffffffffffffffffffffffffffffffff1673ffffffffffffffffffffffffffffffffffffffff168152602001908152602001600020828154811061180857611807613bd7565b5b90600052602060002001549050611820858583611df2565b60d060008673ffffffffffffffffffffffffffffffffffffffff1673ffffffffffffffffffffffffffffffffffffffff168152602001908152602001600020828154811061187157611870613bd7565b5b906000526020600020016000905560d060008573ffffffffffffffffffffffffffffffffffffffff1673ffffffffffffffffffffffffffffffffffffffff1681526020019081526020016000208190806001815401808255809150506001900390600052602060002001600090919091909150555080806118f190613793565b9150506117ae565b508060d260003373ffffffffffffffffffffffffffffffffffffffff1673ffffffffffffffffffffffffffffffffffffffff168152602001908152602001600020600001600082825461194c91906137dc565b925050819055508273ffffffffffffffffffffffffffffffffffffffff166108fc349081150290604051600060405180830381858888f19350505050158015611999573d6000803e3d6000fd5b507f59158d23d62750f16cd67dd3dce5fcfeb193d88db7c46f085a2eac8fa5d8b95083838360d260003373ffffffffffffffffffffffffffffffffffffffff1673ffffffffffffffffffffffffffffffffffffffff16815260200190815260200160002060010154604051611a119493929190613c5b565b60405180910390a17fc25588f31844afdf30d95c167a6a5cb3541c5f0194678bb58703259d42cb2060838383604051611a4c93929190613ca0565b60405180910390a1505050565b6060611a6482611c51565b6000611a6e612404565b90506000815111611a8e5760405180602001604052806000815250611ab9565b80611a988461241b565b604051602001611aa9929190613d13565b6040516020818303038152906040525b915050919050565b600060ce54905090565b60cd5481565b60cf5481565b6000606a60008473ffffffffffffffffffffffffffffffffffffffff1673ffffffffffffffffffffffffffffffffffffffff16815260200190815260200160002060008373ffffffffffffffffffffffffffffffffffffffff1673ffffffffffffffffffffffffffffffffffffffff16815260200190815260200160002060009054906101000a900460ff16905092915050565b600073ffffffffffffffffffffffffffffffffffffffff168173ffffffffffffffffffffffffffffffffffffffff161415611bdb576040517f08c379a0000000000000000000000000000000000000000000000000000000008152600401611bd290613da9565b60405180910390fd5b611be4816120f5565b50565b60007f01ffc9a7000000000000000000000000000000000000000000000000000000007bffffffffffffffffffffffffffffffffffffffffffffffffffffffff1916827bffffffffffffffffffffffffffffffffffffffffffffffffffffffff1916149050919050565b611c5a8161257c565b611c99576040517f08c379a0000000000000000000000000000000000000000000000000000000008152600401611c9090613885565b60405180910390fd5b50565b600033905090565b816069600083815260200190815260200160002060006101000a81548173ffffffffffffffffffffffffffffffffffffffff021916908373ffffffffffffffffffffffffffffffffffffffff160217905550808273ffffffffffffffffffffffffffffffffffffffff16611d1783610d29565b73ffffffffffffffffffffffffffffffffffffffff167f8c5be1e5ebec7d5bd14f71427d1e84f3dd0314c0f7b2291e5b200ac8c7c3b92560405160405180910390a45050565b600080611d6983610d29565b90508073ffffffffffffffffffffffffffffffffffffffff168473ffffffffffffffffffffffffffffffffffffffff161480611dab5750611daa8185611ad7565b5b80611de957508373ffffffffffffffffffffffffffffffffffffffff16611dd1846108e1565b73ffffffffffffffffffffffffffffffffffffffff16145b91505092915050565b8273ffffffffffffffffffffffffffffffffffffffff16611e1282610d29565b73ffffffffffffffffffffffffffffffffffffffff1614611e68576040517f08c379a0000000000000000000000000000000000000000000000000000000008152600401611e5f90613e3b565b60405180910390fd5b600073ffffffffffffffffffffffffffffffffffffffff168273ffffffffffffffffffffffffffffffffffffffff161415611ed8576040517f08c379a0000000000000000000000000000000000000000000000000000000008152600401611ecf90613ecd565b60405180910390fd5b611ee38383836125e8565b611eee600082611ca4565b6001606860008573ffffffffffffffffffffffffffffffffffffffff1673ffffffffffffffffffffffffffffffffffffffff1681526020019081526020016000206000828254611f3e91906137dc565b925050819055506001606860008473ffffffffffffffffffffffffffffffffffffffff1673ffffffffffffffffffffffffffffffffffffffff1681526020019081526020016000206000828254611f95919061373d565b92505081905550816067600083815260200190815260200160002060006101000a81548173ffffffffffffffffffffffffffffffffffffffff021916908373ffffffffffffffffffffffffffffffffffffffff160217905550808273ffffffffffffffffffffffffffffffffffffffff168473ffffffffffffffffffffffffffffffffffffffff167fddf252ad1be2c89b69c2b068fc378daa952ba7f163c4a11628f55a4df523b3ef60405160405180910390a46120548383836125ed565b505050565b612061611c9c565b73ffffffffffffffffffffffffffffffffffffffff1661207f611378565b73ffffffffffffffffffffffffffffffffffffffff16146120d5576040517f08c379a00000000000000000000000000000000000000000000000000000000081526004016120cc90613f39565b60405180910390fd5b565b6120f18282604051806020016040528060008152506125f2565b5050565b6000609760009054906101000a900473ffffffffffffffffffffffffffffffffffffffff16905081609760006101000a81548173ffffffffffffffffffffffffffffffffffffffff021916908373ffffffffffffffffffffffffffffffffffffffff1602179055508173ffffffffffffffffffffffffffffffffffffffff168173ffffffffffffffffffffffffffffffffffffffff167f8be0079c531659141344cd1fd0a4f28419497f9722a3daafe3b4186f6b6457e060405160405180910390a35050565b6000808273ffffffffffffffffffffffffffffffffffffffff163b119050919050565b600060019054906101000a900460ff1661222d576040517f08c379a000000000000000000000000000000000000000000000000000000000815260040161222490613fcb565b60405180910390fd5b612237828261264d565b5050565b8173ffffffffffffffffffffffffffffffffffffffff168373ffffffffffffffffffffffffffffffffffffffff1614156122aa576040517f08c379a00000000000000000000000000000000000000000000000000000000081526004016122a190614037565b60405180910390fd5b80606a60008573ffffffffffffffffffffffffffffffffffffffff1673ffffffffffffffffffffffffffffffffffffffff16815260200190815260200160002060008473ffffffffffffffffffffffffffffffffffffffff1673ffffffffffffffffffffffffffffffffffffffff16815260200190815260200160002060006101000a81548160ff0219169083151502179055508173ffffffffffffffffffffffffffffffffffffffff168373ffffffffffffffffffffffffffffffffffffffff167f17307eab39ab6107e8899845ad3d59bd9653f200f220920489ca2b5937696c318360405161239b9190612b96565b60405180910390a3505050565b6123b3848484611df2565b6123bf848484846126ce565b6123fe576040517f08c379a00000000000000000000000000000000000000000000000000000000081526004016123f5906140c9565b60405180910390fd5b50505050565b606060405180602001604052806000815250905090565b60606000821415612463576040518060400160405280600181526020017f30000000000000000000000000000000000000000000000000000000000000008152509050612577565b600082905060005b6000821461249557808061247e90613793565b915050600a8261248e9190614118565b915061246b565b60008167ffffffffffffffff8111156124b1576124b0612ef2565b5b6040519080825280601f01601f1916602001820160405280156124e35781602001600182028036833780820191505090505b5090505b60008514612570576001826124fc91906137dc565b9150600a8561250b9190614149565b6030612517919061373d565b60f81b81838151811061252d5761252c613bd7565b5b60200101907effffffffffffffffffffffffffffffffffffffffffffffffffffffffffffff1916908160001a905350600a856125699190614118565b94506124e7565b8093505050505b919050565b60008073ffffffffffffffffffffffffffffffffffffffff166067600084815260200190815260200160002060009054906101000a900473ffffffffffffffffffffffffffffffffffffffff1673ffffffffffffffffffffffffffffffffffffffff1614159050919050565b505050565b505050565b6125fc8383612865565b61260960008484846126ce565b612648576040517f08c379a000000000000000000000000000000000000000000000000000000000815260040161263f906140c9565b60405180910390fd5b505050565b600060019054906101000a900460ff1661269c576040517f08c379a000000000000000000000000000000000000000000000000000000000815260040161269390613fcb565b60405180910390fd5b81606590805190602001906126b2929190612a3f565b5080606690805190602001906126c9929190612a3f565b505050565b60006126ef8473ffffffffffffffffffffffffffffffffffffffff166121bb565b15612858578373ffffffffffffffffffffffffffffffffffffffff1663150b7a02612718611c9c565b8786866040518563ffffffff1660e01b815260040161273a94939291906141cf565b602060405180830381600087803b15801561275457600080fd5b505af192505050801561278557506040513d601f19601f820116820180604052508101906127829190614230565b60015b612808573d80600081146127b5576040519150601f19603f3d011682016040523d82523d6000602084013e6127ba565b606091505b50600081511415612800576040517f08c379a00000000000000000000000000000000000000000000000000000000081526004016127f7906140c9565b60405180910390fd5b805181602001fd5b63150b7a0260e01b7bffffffffffffffffffffffffffffffffffffffffffffffffffffffff1916817bffffffffffffffffffffffffffffffffffffffffffffffffffffffff19161491505061285d565b600190505b949350505050565b600073ffffffffffffffffffffffffffffffffffffffff168273ffffffffffffffffffffffffffffffffffffffff1614156128d5576040517f08c379a00000000000000000000000000000000000000000000000000000000081526004016128cc906142a9565b60405180910390fd5b6128de8161257c565b1561291e576040517f08c379a000000000000000000000000000000000000000000000000000000000815260040161291590614315565b60405180910390fd5b61292a600083836125e8565b6001606860008473ffffffffffffffffffffffffffffffffffffffff1673ffffffffffffffffffffffffffffffffffffffff168152602001908152602001600020600082825461297a919061373d565b92505081905550816067600083815260200190815260200160002060006101000a81548173ffffffffffffffffffffffffffffffffffffffff021916908373ffffffffffffffffffffffffffffffffffffffff160217905550808273ffffffffffffffffffffffffffffffffffffffff16600073ffffffffffffffffffffffffffffffffffffffff167fddf252ad1be2c89b69c2b068fc378daa952ba7f163c4a11628f55a4df523b3ef60405160405180910390a4612a3b600083836125ed565b5050565b828054612a4b90613362565b90600052602060002090601f016020900481019282612a6d5760008555612ab4565b82601f10612a8657805160ff1916838001178555612ab4565b82800160010185558215612ab4579182015b82811115612ab3578251825591602001919060010190612a98565b5b509050612ac19190612ac5565b5090565b5b80821115612ade576000816000905550600101612ac6565b5090565b6000604051905090565b600080fd5b600080fd5b60007fffffffff0000000000000000000000000000000000000000000000000000000082169050919050565b612b2b81612af6565b8114612b3657600080fd5b50565b600081359050612b4881612b22565b92915050565b600060208284031215612b6457612b63612aec565b5b6000612b7284828501612b39565b91505092915050565b60008115159050919050565b612b9081612b7b565b82525050565b6000602082019050612bab6000830184612b87565b92915050565b600081519050919050565b600082825260208201905092915050565b60005b83811015612beb578082015181840152602081019050612bd0565b83811115612bfa576000848401525b50505050565b6000601f19601f8301169050919050565b6000612c1c82612bb1565b612c268185612bbc565b9350612c36818560208601612bcd565b612c3f81612c00565b840191505092915050565b60006020820190508181036000830152612c648184612c11565b905092915050565b6000819050919050565b612c7f81612c6c565b8114612c8a57600080fd5b50565b600081359050612c9c81612c76565b92915050565b600060208284031215612cb857612cb7612aec565b5b6000612cc684828501612c8d565b91505092915050565b600073ffffffffffffffffffffffffffffffffffffffff82169050919050565b6000612cfa82612ccf565b9050919050565b612d0a81612cef565b82525050565b6000602082019050612d256000830184612d01565b92915050565b612d3481612cef565b8114612d3f57600080fd5b50565b600081359050612d5181612d2b565b92915050565b60008060408385031215612d6e57612d6d612aec565b5b6000612d7c85828601612d42565b9250506020612d8d85828601612c8d565b9150509250929050565b600080600060608486031215612db057612daf612aec565b5b6000612dbe86828701612d42565b9350506020612dcf86828701612d42565b9250506040612de086828701612c8d565b9150509250925092565b600060208284031215612e0057612dff612aec565b5b6000612e0e84828501612d42565b91505092915050565b612e2081612c6c565b82525050565b6000604082019050612e3b6000830185612e17565b612e486020830184612e17565b9392505050565b6000612e5a82612ccf565b9050919050565b612e6a81612e4f565b8114612e7557600080fd5b50565b600081359050612e8781612e61565b92915050565b60008060408385031215612ea457612ea3612aec565b5b6000612eb285828601612e78565b9250506020612ec385828601612c8d565b9150509250929050565b6000602082019050612ee26000830184612e17565b92915050565b600080fd5b600080fd5b7f4e487b7100000000000000000000000000000000000000000000000000000000600052604160045260246000fd5b612f2a82612c00565b810181811067ffffffffffffffff82111715612f4957612f48612ef2565b5b80604052505050565b6000612f5c612ae2565b9050612f688282612f21565b919050565b600067ffffffffffffffff821115612f8857612f87612ef2565b5b612f9182612c00565b9050602081019050919050565b82818337600083830152505050565b6000612fc0612fbb84612f6d565b612f52565b905082815260208101848484011115612fdc57612fdb612eed565b5b612fe7848285612f9e565b509392505050565b600082601f83011261300457613003612ee8565b5b8135613014848260208601612fad565b91505092915050565b600080600080600060a0868803121561303957613038612aec565b5b600086013567ffffffffffffffff81111561305757613056612af1565b5b61306388828901612fef565b955050602086013567ffffffffffffffff81111561308457613083612af1565b5b61309088828901612fef565b94505060406130a188828901612c8d565b93505060606130b288828901612c8d565b92505060806130c388828901612c8d565b9150509295509295909350565b600080604083850312156130e7576130e6612aec565b5b60006130f585828601612c8d565b925050602061310685828601612c8d565b9150509250929050565b61311981612b7b565b811461312457600080fd5b50565b60008135905061313681613110565b92915050565b6000806040838503121561315357613152612aec565b5b600061316185828601612d42565b925050602061317285828601613127565b9150509250929050565b600067ffffffffffffffff82111561319757613196612ef2565b5b6131a082612c00565b9050602081019050919050565b60006131c06131bb8461317c565b612f52565b9050828152602081018484840111156131dc576131db612eed565b5b6131e7848285612f9e565b509392505050565b600082601f83011261320457613203612ee8565b5b81356132148482602086016131ad565b91505092915050565b6000806000806080858703121561323757613236612aec565b5b600061324587828801612d42565b945050602061325687828801612d42565b935050604061326787828801612c8d565b925050606085013567ffffffffffffffff81111561328857613287612af1565b5b613294878288016131ef565b91505092959194509250565b6000806000606084860312156132b9576132b8612aec565b5b60006132c786828701612e78565b93505060206132d886828701612d42565b92505060406132e986828701612c8d565b9150509250925092565b6000806040838503121561330a57613309612aec565b5b600061331885828601612d42565b925050602061332985828601612d42565b9150509250929050565b7f4e487b7100000000000000000000000000000000000000000000000000000000600052602260045260246000fd5b6000600282049050600182168061337a57607f821691505b6020821081141561338e5761338d613333565b5b50919050565b7f4552433732313a20617070726f76616c20746f2063757272656e74206f776e6560008201527f7200000000000000000000000000000000000000000000000000000000000000602082015250565b60006133f0602183612bbc565b91506133fb82613394565b604082019050919050565b6000602082019050818103600083015261341f816133e3565b9050919050565b7f4552433732313a20617070726f76652063616c6c6572206973206e6f7420746f60008201527f6b656e206f776e6572206e6f7220617070726f76656420666f7220616c6c0000602082015250565b6000613482603e83612bbc565b915061348d82613426565b604082019050919050565b600060208201905081810360008301526134b181613475565b9050919050565b7f4552433732313a2063616c6c6572206973206e6f7420746f6b656e206f776e6560008201527f72206e6f7220617070726f766564000000000000000000000000000000000000602082015250565b6000613514602e83612bbc565b915061351f826134b8565b604082019050919050565b6000602082019050818103600083015261354381613507565b9050919050565b7f4e6f7420656e6f75676820737570706c792072656d61696e696e670000000000600082015250565b6000613580601b83612bbc565b915061358b8261354a565b602082019050919050565b600060208201905081810360008301526135af81613573565b9050919050565b7f6e6f2d6f6620746f6b656e73206172652067726561746572207468616e20746f60008201527f6b656e50657257616c6c65740000000000000000000000000000000000000000602082015250565b6000613612602c83612bbc565b915061361d826135b6565b604082019050919050565b6000602082019050818103600083015261364181613605565b9050919050565b7f4e487b7100000000000000000000000000000000000000000000000000000000600052601160045260246000fd5b600061368282612c6c565b915061368d83612c6c565b9250817fffffffffffffffffffffffffffffffffffffffffffffffffffffffffffffffff04831182151516156136c6576136c5613648565b5b828202905092915050565b7f6e6f7420656e6f7567682076616c75652073656e640000000000000000000000600082015250565b6000613707601583612bbc565b9150613712826136d1565b602082019050919050565b60006020820190508181036000830152613736816136fa565b9050919050565b600061374882612c6c565b915061375383612c6c565b9250827fffffffffffffffffffffffffffffffffffffffffffffffffffffffffffffffff0382111561378857613787613648565b5b828201905092915050565b600061379e82612c6c565b91507fffffffffffffffffffffffffffffffffffffffffffffffffffffffffffffffff8214156137d1576137d0613648565b5b600182019050919050565b60006137e782612c6c565b91506137f283612c6c565b92508282101561380557613804613648565b5b828203905092915050565b60006040820190506138256000830185612d01565b6138326020830184612e17565b9392505050565b7f4552433732313a20696e76616c696420746f6b656e2049440000000000000000600082015250565b600061386f601883612bbc565b915061387a82613839565b602082019050919050565b6000602082019050818103600083015261389e81613862565b9050919050565b7f4552433732313a2061646472657373207a65726f206973206e6f74206120766160008201527f6c6964206f776e65720000000000000000000000000000000000000000000000602082015250565b6000613901602983612bbc565b915061390c826138a5565b604082019050919050565b60006020820190508181036000830152613930816138f4565b9050919050565b7f496e697469616c697a61626c653a20636f6e747261637420697320616c72656160008201527f647920696e697469616c697a6564000000000000000000000000000000000000602082015250565b6000613993602e83612bbc565b915061399e82613937565b604082019050919050565b600060208201905081810360008301526139c281613986565b9050919050565b6000819050919050565b600060ff82169050919050565b6000819050919050565b6000613a05613a006139fb846139c9565b6139e0565b6139d3565b9050919050565b613a15816139ea565b82525050565b6000602082019050613a306000830184613a0c565b92915050565b7f4e6f20546f6b656e20666f72206c697374696e67000000000000000000000000600082015250565b6000613a6c601483612bbc565b9150613a7782613a36565b602082019050919050565b60006020820190508181036000830152613a9b81613a5f565b9050919050565b7f596f7520646f6e74206861766520656e6f7567682073686172657320696e207960008201527f6f75722077616c6c657400000000000000000000000000000000000000000000602082015250565b6000613afe602a83612bbc565b9150613b0982613aa2565b604082019050919050565b60006020820190508181036000830152613b2d81613af1565b9050919050565b6000606082019050613b496000830186612d01565b613b566020830185612e17565b613b636040830184612e17565b949350505050565b7f596f7520646f6e74206861766520656e6f75676820746f6b656e730000000000600082015250565b6000613ba1601b83612bbc565b9150613bac82613b6b565b602082019050919050565b60006020820190508181036000830152613bd081613b94565b9050919050565b7f4e487b7100000000000000000000000000000000000000000000000000000000600052603260045260246000fd5b6000613c21613c1c613c1784612ccf565b6139e0565b612ccf565b9050919050565b6000613c3382613c06565b9050919050565b6000613c4582613c28565b9050919050565b613c5581613c3a565b82525050565b6000608082019050613c706000830187613c4c565b613c7d6020830186612d01565b613c8a6040830185612e17565b613c976060830184612e17565b95945050505050565b6000606082019050613cb56000830186613c4c565b613cc26020830185612d01565b613ccf6040830184612e17565b949350505050565b600081905092915050565b6000613ced82612bb1565b613cf78185613cd7565b9350613d07818560208601612bcd565b80840191505092915050565b6000613d1f8285613ce2565b9150613d2b8284613ce2565b91508190509392505050565b7f4f776e61626c653a206e6577206f776e657220697320746865207a65726f206160008201527f6464726573730000000000000000000000000000000000000000000000000000602082015250565b6000613d93602683612bbc565b9150613d9e82613d37565b604082019050919050565b60006020820190508181036000830152613dc281613d86565b9050919050565b7f4552433732313a207472616e736665722066726f6d20696e636f72726563742060008201527f6f776e6572000000000000000000000000000000000000000000000000000000602082015250565b6000613e25602583612bbc565b9150613e3082613dc9565b604082019050919050565b60006020820190508181036000830152613e5481613e18565b9050919050565b7f4552433732313a207472616e7366657220746f20746865207a65726f2061646460008201527f7265737300000000000000000000000000000000000000000000000000000000602082015250565b6000613eb7602483612bbc565b9150613ec282613e5b565b604082019050919050565b60006020820190508181036000830152613ee681613eaa565b9050919050565b7f4f776e61626c653a2063616c6c6572206973206e6f7420746865206f776e6572600082015250565b6000613f23602083612bbc565b9150613f2e82613eed565b602082019050919050565b60006020820190508181036000830152613f5281613f16565b9050919050565b7f496e697469616c697a61626c653a20636f6e7472616374206973206e6f74206960008201527f6e697469616c697a696e67000000000000000000000000000000000000000000602082015250565b6000613fb5602b83612bbc565b9150613fc082613f59565b604082019050919050565b60006020820190508181036000830152613fe481613fa8565b9050919050565b7f4552433732313a20617070726f766520746f2063616c6c657200000000000000600082015250565b6000614021601983612bbc565b915061402c82613feb565b602082019050919050565b6000602082019050818103600083015261405081614014565b9050919050565b7f4552433732313a207472616e7366657220746f206e6f6e20455243373231526560008201527f63656976657220696d706c656d656e7465720000000000000000000000000000602082015250565b60006140b3603283612bbc565b91506140be82614057565b604082019050919050565b600060208201905081810360008301526140e2816140a6565b9050919050565b7f4e487b7100000000000000000000000000000000000000000000000000000000600052601260045260246000fd5b600061412382612c6c565b915061412e83612c6c565b92508261413e5761413d6140e9565b5b828204905092915050565b600061415482612c6c565b915061415f83612c6c565b92508261416f5761416e6140e9565b5b828206905092915050565b600081519050919050565b600082825260208201905092915050565b60006141a18261417a565b6141ab8185614185565b93506141bb818560208601612bcd565b6141c481612c00565b840191505092915050565b60006080820190506141e46000830187612d01565b6141f16020830186612d01565b6141fe6040830185612e17565b81810360608301526142108184614196565b905095945050505050565b60008151905061422a81612b22565b92915050565b60006020828403121561424657614245612aec565b5b60006142548482850161421b565b91505092915050565b7f4552433732313a206d696e7420746f20746865207a65726f2061646472657373600082015250565b6000614293602083612bbc565b915061429e8261425d565b602082019050919050565b600060208201905081810360008301526142c281614286565b9050919050565b7f4552433732313a20746f6b656e20616c7265616479206d696e74656400000000600082015250565b60006142ff601c83612bbc565b915061430a826142c9565b602082019050919050565b6000602082019050818103600083015261432e816142f2565b905091905056fea264697066735822122048e410ab365011fe0607e07a0b96df024fc5167c6b9954cbffe9fa5294ffba2364736f6c63430008090033",
  "linkReferences": {},
  "deployedLinkReferences": {}
}