{
  "_format": "hh-sol-artifact-1",
  "contractName": "ERC721Factory",
  "sourceName": "contracts/ERC721Factory.sol",
  "abi": [
    {
      "inputs": [],
      "stateMutability": "nonpayable",
      "type": "constructor"
    },
    {
      "anonymous": false,
      "inputs": [
        {
          "indexed": true,
          "internalType": "address",
          "name": "from",
          "type": "address"
        },
        {
          "indexed": true,
          "internalType": "address",
          "name": "cloneAdd",
          "type": "address"
        }
      ],
      "name": "CloneCreatedAt",
      "type": "event"
    },
    {
      "inputs": [
        {
          "internalType": "address",
          "name": "",
          "type": "address"
        },
        {
          "internalType": "uint256",
          "name": "",
          "type": "uint256"
        }
      ],
      "name": "ShareHolders",
      "outputs": [
        {
          "internalType": "address",
          "name": "",
          "type": "address"
        }
      ],
      "stateMutability": "view",
      "type": "function"
    },
    {
      "inputs": [],
      "name": "clone",
      "outputs": [
        {
          "internalType": "address",
          "name": "",
          "type": "address"
        }
      ],
      "stateMutability": "view",
      "type": "function"
    },
    {
      "inputs": [
        {
          "internalType": "string",
          "name": "_propertyAddress",
          "type": "string"
        },
        {
          "internalType": "string",
          "name": "_ownerName",
          "type": "string"
        },
        {
          "internalType": "uint256",
          "name": "_totalSupply",
          "type": "uint256"
        },
        {
          "internalType": "uint256",
          "name": "_pricePerToken",
          "type": "uint256"
        },
        {
          "internalType": "uint256",
          "name": "_tokensPerWallet",
          "type": "uint256"
        }
      ],
      "name": "cloneContract",
      "outputs": [
        {
          "internalType": "address",
          "name": "",
          "type": "address"
        }
      ],
      "stateMutability": "nonpayable",
      "type": "function"
    },
    {
      "inputs": [],
      "name": "implementation",
      "outputs": [
        {
          "internalType": "address",
          "name": "",
          "type": "address"
        }
      ],
      "stateMutability": "view",
      "type": "function"
    }
  ],
  "bytecode": "0x608060405234801561001057600080fd5b5060405161001d9061007e565b604051809103906000f080158015610039573d6000803e3d6000fd5b506000806101000a81548173ffffffffffffffffffffffffffffffffffffffff021916908373ffffffffffffffffffffffffffffffffffffffff16021790555061008b565b613f8b80610a1983390190565b61097f8061009a6000396000f3fe608060405234801561001057600080fd5b506004361061004c5760003560e01c806309ed4607146100515780635c60da1b1461006f5780638013fa9f1461008d578063baf7b03d146100bd575b600080fd5b6100596100ed565b604051610066919061051b565b60405180910390f35b610077610113565b604051610084919061051b565b60405180910390f35b6100a760048036038101906100a291906105ac565b610137565b6040516100b4919061051b565b60405180910390f35b6100d760048036038101906100d29190610732565b610185565b6040516100e4919061051b565b60405180910390f35b600160009054906101000a900473ffffffffffffffffffffffffffffffffffffffff1681565b60008054906101000a900473ffffffffffffffffffffffffffffffffffffffff1681565b6002602052816000526040600020818154811061015357600080fd5b906000526020600020016000915091509054906101000a900473ffffffffffffffffffffffffffffffffffffffff1681565b600061019486868686866101c2565b600160009054906101000a900473ffffffffffffffffffffffffffffffffffffffff16905095945050505050565b6101eb60008054906101000a900473ffffffffffffffffffffffffffffffffffffffff16610405565b600160006101000a81548173ffffffffffffffffffffffffffffffffffffffff021916908373ffffffffffffffffffffffffffffffffffffffff160217905550600160009054906101000a900473ffffffffffffffffffffffffffffffffffffffff1673ffffffffffffffffffffffffffffffffffffffff16637544e6b386868686866040518663ffffffff1660e01b815260040161028e95949392919061087c565b600060405180830381600087803b1580156102a857600080fd5b505af11580156102bc573d6000803e3d6000fd5b50505050600260003373ffffffffffffffffffffffffffffffffffffffff1673ffffffffffffffffffffffffffffffffffffffff168152602001908152602001600020600160009054906101000a900473ffffffffffffffffffffffffffffffffffffffff169080600181540180825580915050600190039060005260206000200160009091909190916101000a81548173ffffffffffffffffffffffffffffffffffffffff021916908373ffffffffffffffffffffffffffffffffffffffff160217905550600160009054906101000a900473ffffffffffffffffffffffffffffffffffffffff1673ffffffffffffffffffffffffffffffffffffffff163373ffffffffffffffffffffffffffffffffffffffff167fe1551f6f36293381ff1deb20a3d00b32e343e92e820f9a6e5e6acfaa8439a19460405160405180910390a35050505050565b60006040517f3d602d80600a3d3981f3363d3d373d3d3d363d7300000000000000000000000081528260601b60148201527f5af43d82803e903d91602b57fd5bf3000000000000000000000000000000000060288201526037816000f0915050600073ffffffffffffffffffffffffffffffffffffffff168173ffffffffffffffffffffffffffffffffffffffff1614156104d5576040517f08c379a00000000000000000000000000000000000000000000000000000000081526004016104cc90610929565b60405180910390fd5b919050565b600073ffffffffffffffffffffffffffffffffffffffff82169050919050565b6000610505826104da565b9050919050565b610515816104fa565b82525050565b6000602082019050610530600083018461050c565b92915050565b6000604051905090565b600080fd5b600080fd5b610553816104fa565b811461055e57600080fd5b50565b6000813590506105708161054a565b92915050565b6000819050919050565b61058981610576565b811461059457600080fd5b50565b6000813590506105a681610580565b92915050565b600080604083850312156105c3576105c2610540565b5b60006105d185828601610561565b92505060206105e285828601610597565b9150509250929050565b600080fd5b600080fd5b6000601f19601f8301169050919050565b7f4e487b7100000000000000000000000000000000000000000000000000000000600052604160045260246000fd5b61063f826105f6565b810181811067ffffffffffffffff8211171561065e5761065d610607565b5b80604052505050565b6000610671610536565b905061067d8282610636565b919050565b600067ffffffffffffffff82111561069d5761069c610607565b5b6106a6826105f6565b9050602081019050919050565b82818337600083830152505050565b60006106d56106d084610682565b610667565b9050828152602081018484840111156106f1576106f06105f1565b5b6106fc8482856106b3565b509392505050565b600082601f830112610719576107186105ec565b5b81356107298482602086016106c2565b91505092915050565b600080600080600060a0868803121561074e5761074d610540565b5b600086013567ffffffffffffffff81111561076c5761076b610545565b5b61077888828901610704565b955050602086013567ffffffffffffffff81111561079957610798610545565b5b6107a588828901610704565b94505060406107b688828901610597565b93505060606107c788828901610597565b92505060806107d888828901610597565b9150509295509295909350565b600081519050919050565b600082825260208201905092915050565b60005b8381101561081f578082015181840152602081019050610804565b8381111561082e576000848401525b50505050565b600061083f826107e5565b61084981856107f0565b9350610859818560208601610801565b610862816105f6565b840191505092915050565b61087681610576565b82525050565b600060a08201905081810360008301526108968188610834565b905081810360208301526108aa8187610834565b90506108b9604083018661086d565b6108c6606083018561086d565b6108d3608083018461086d565b9695505050505050565b7f455243313136373a20637265617465206661696c656400000000000000000000600082015250565b60006109136016836107f0565b915061091e826108dd565b602082019050919050565b6000602082019050818103600083015261094281610906565b905091905056fea26469706673582212203423a1ba8b80c60c14874ed967e89340463ec2e72ca4fd4712d64e7bccc83caf64736f6c634300080900336080604052600060d25534801561001557600080fd5b50613f66806100256000396000f3fe6080604052600436106101d85760003560e01c80637544e6b311610102578063b88d4fde11610095578063d068cdc511610064578063d068cdc51461067c578063e31d89e5146106a7578063e985e9c5146106d2578063f2fde38b1461070f576101d8565b8063b88d4fde146105cf578063beabacc8146105f8578063c87b56dd14610614578063ca1e973814610651576101d8565b806395d89b41116100d157806395d89b411461051357806396f517131461053e578063a22cb4651461057b578063a386e8d6146105a4576101d8565b80637544e6b31461047d5780637b1b1de6146104a65780638456cb59146104d15780638da5cb5b146104e8576101d8565b80633f4ba83a1161017a57806365ac23201161014957806365ac2320146103d357806366440d71146103fe57806370a0823114610429578063715018a614610466576101d8565b80633f4ba83a1461033a57806340c10f191461035157806342842e0e1461036d5780636352211e14610396576101d8565b8063095ea7b3116101b6578063095ea7b3146102825780631463cb40146102ab57806323b872dd146102d45780632f52b877146102fd576101d8565b806301ffc9a7146101dd57806306fdde031461021a578063081812fc14610245575b600080fd5b3480156101e957600080fd5b5061020460048036038101906101ff919061289a565b610738565b60405161021191906128e2565b60405180910390f35b34801561022657600080fd5b5061022f61081a565b60405161023c9190612996565b60405180910390f35b34801561025157600080fd5b5061026c600480360381019061026791906129ee565b6108ac565b6040516102799190612a5c565b60405180910390f35b34801561028e57600080fd5b506102a960048036038101906102a49190612aa3565b6108f2565b005b3480156102b757600080fd5b506102d260048036038101906102cd91906129ee565b610a0a565b005b3480156102e057600080fd5b506102fb60048036038101906102f69190612ae3565b610ba6565b005b34801561030957600080fd5b50610324600480360381019061031f9190612b36565b610c06565b6040516103319190612b72565b60405180910390f35b34801561034657600080fd5b5061034f610c1e565b005b61036b60048036038101906103669190612bcb565b610c30565b005b34801561037957600080fd5b50610394600480360381019061038f9190612ae3565b610e64565b005b3480156103a257600080fd5b506103bd60048036038101906103b891906129ee565b610e84565b6040516103ca9190612a5c565b60405180910390f35b3480156103df57600080fd5b506103e8610f36565b6040516103f59190612996565b60405180910390f35b34801561040a57600080fd5b50610413610fc4565b6040516104209190612996565b60405180910390f35b34801561043557600080fd5b50610450600480360381019061044b9190612b36565b611052565b60405161045d9190612b72565b60405180910390f35b34801561047257600080fd5b5061047b61110a565b005b34801561048957600080fd5b506104a4600480360381019061049f9190612d40565b61111e565b005b3480156104b257600080fd5b506104bb61131c565b6040516104c89190612b72565b60405180910390f35b3480156104dd57600080fd5b506104e6611322565b005b3480156104f457600080fd5b506104fd611334565b60405161050a9190612a5c565b60405180910390f35b34801561051f57600080fd5b5061052861135e565b6040516105359190612996565b60405180910390f35b34801561054a57600080fd5b5061056560048036038101906105609190612aa3565b6113f0565b6040516105729190612b72565b60405180910390f35b34801561058757600080fd5b506105a2600480360381019061059d9190612e1f565b611421565b005b3480156105b057600080fd5b506105b9611437565b6040516105c69190612b72565b60405180910390f35b3480156105db57600080fd5b506105f660048036038101906105f19190612f00565b611441565b005b610612600480360381019061060d9190612f83565b6114a3565b005b34801561062057600080fd5b5061063b600480360381019061063691906129ee565b6117a5565b6040516106489190612996565b60405180910390f35b34801561065d57600080fd5b5061066661180d565b6040516106739190612b72565b60405180910390f35b34801561068857600080fd5b50610691611817565b60405161069e9190612b72565b60405180910390f35b3480156106b357600080fd5b506106bc61181d565b6040516106c99190612b72565b60405180910390f35b3480156106de57600080fd5b506106f960048036038101906106f49190612fd6565b611823565b60405161070691906128e2565b60405180910390f35b34801561071b57600080fd5b5061073660048036038101906107319190612b36565b6118b7565b005b60007f80ac58cd000000000000000000000000000000000000000000000000000000007bffffffffffffffffffffffffffffffffffffffffffffffffffffffff1916827bffffffffffffffffffffffffffffffffffffffffffffffffffffffff1916148061080357507f5b5e139f000000000000000000000000000000000000000000000000000000007bffffffffffffffffffffffffffffffffffffffffffffffffffffffff1916827bffffffffffffffffffffffffffffffffffffffffffffffffffffffff1916145b80610813575061081282611933565b5b9050919050565b60606065805461082990613045565b80601f016020809104026020016040519081016040528092919081815260200182805461085590613045565b80156108a25780601f10610877576101008083540402835291602001916108a2565b820191906000526020600020905b81548152906001019060200180831161088557829003601f168201915b5050505050905090565b60006108b78261199d565b6069600083815260200190815260200160002060009054906101000a900473ffffffffffffffffffffffffffffffffffffffff169050919050565b60006108fd82610e84565b90508073ffffffffffffffffffffffffffffffffffffffff168373ffffffffffffffffffffffffffffffffffffffff16141561096e576040517f08c379a0000000000000000000000000000000000000000000000000000000008152600401610965906130e9565b60405180910390fd5b8073ffffffffffffffffffffffffffffffffffffffff1661098d6119e8565b73ffffffffffffffffffffffffffffffffffffffff1614806109bc57506109bb816109b66119e8565b611823565b5b6109fb576040517f08c379a00000000000000000000000000000000000000000000000000000000081526004016109f29061317b565b60405180910390fd5b610a0583836119f0565b505050565b600060d060003373ffffffffffffffffffffffffffffffffffffffff1673ffffffffffffffffffffffffffffffffffffffff1681526020019081526020016000208054905011610a8f576040517f08c379a0000000000000000000000000000000000000000000000000000000008152600401610a869061320d565b60405180910390fd5b60d060003373ffffffffffffffffffffffffffffffffffffffff1673ffffffffffffffffffffffffffffffffffffffff16815260200190815260200160002080549050811115610b14576040517f08c379a0000000000000000000000000000000000000000000000000000000008152600401610b0b9061320d565b60405180910390fd5b8060d160003373ffffffffffffffffffffffffffffffffffffffff1673ffffffffffffffffffffffffffffffffffffffff1681526020019081526020016000206000828254610b63919061325c565b925050819055507f88e70a3a2c6cbeb128c95d6dd08991b9ec0531fc455fbfc03ef6475ad898c7e73382604051610b9b9291906132b2565b60405180910390a150565b610bb7610bb16119e8565b82611aa9565b610bf6576040517f08c379a0000000000000000000000000000000000000000000000000000000008152600401610bed9061334d565b60405180910390fd5b610c01838383611b3e565b505050565b60d16020528060005260406000206000915090505481565b610c26611da5565b610c2e610c1e565b565b8060cd541015610c75576040517f08c379a0000000000000000000000000000000000000000000000000000000008152600401610c6c906133b9565b60405180910390fd5b8060cf541015610cba576040517f08c379a0000000000000000000000000000000000000000000000000000000008152600401610cb19061344b565b60405180910390fd5b60ce5481610cc8919061346b565b341015610d0a576040517f08c379a0000000000000000000000000000000000000000000000000000000008152600401610d0190613511565b60405180910390fd5b6000600190505b818111610dcb57610d2f338260d254610d2a919061325c565b611e23565b60d060003373ffffffffffffffffffffffffffffffffffffffff1673ffffffffffffffffffffffffffffffffffffffff168152602001908152602001600020600160d254610d7d919061325c565b9080600181540180825580915050600190039060005260206000200160009091909190915055600160d254610db2919061325c565b60d2819055508080610dc390613531565b915050610d11565b508060cd54610dda919061357a565b60cd819055508173ffffffffffffffffffffffffffffffffffffffff166108fc349081150290604051600060405180830381858888f19350505050158015610e26573d6000803e3d6000fd5b507f0f6798a560793a54c3bcfe86a93cde1e73087d944c0ea20544137d41213968853382604051610e589291906132b2565b60405180910390a15050565b610e7f83838360405180602001604052806000815250611441565b505050565b6000806067600084815260200190815260200160002060009054906101000a900473ffffffffffffffffffffffffffffffffffffffff169050600073ffffffffffffffffffffffffffffffffffffffff168173ffffffffffffffffffffffffffffffffffffffff161415610f2d576040517f08c379a0000000000000000000000000000000000000000000000000000000008152600401610f24906135fa565b60405180910390fd5b80915050919050565b60cc8054610f4390613045565b80601f0160208091040260200160405190810160405280929190818152602001828054610f6f90613045565b8015610fbc5780601f10610f9157610100808354040283529160200191610fbc565b820191906000526020600020905b815481529060010190602001808311610f9f57829003601f168201915b505050505081565b60cb8054610fd190613045565b80601f0160208091040260200160405190810160405280929190818152602001828054610ffd90613045565b801561104a5780601f1061101f5761010080835404028352916020019161104a565b820191906000526020600020905b81548152906001019060200180831161102d57829003601f168201915b505050505081565b60008073ffffffffffffffffffffffffffffffffffffffff168273ffffffffffffffffffffffffffffffffffffffff1614156110c3576040517f08c379a00000000000000000000000000000000000000000000000000000000081526004016110ba9061368c565b60405180910390fd5b606860008373ffffffffffffffffffffffffffffffffffffffff1673ffffffffffffffffffffffffffffffffffffffff168152602001908152602001600020549050919050565b611112611da5565b61111c6000611e41565b565b60008060019054906101000a900460ff1615905080801561114f5750600160008054906101000a900460ff1660ff16105b8061117c575061115e30611f07565b15801561117b5750600160008054906101000a900460ff1660ff16145b5b6111bb576040517f08c379a00000000000000000000000000000000000000000000000000000000081526004016111b29061371e565b60405180910390fd5b60016000806101000a81548160ff021916908360ff16021790555080156111f8576001600060016101000a81548160ff0219169083151502179055505b61126c6040518060400160405280600a81526020017f5265616c457374617465000000000000000000000000000000000000000000008152506040518060400160405280600281526020017f5245000000000000000000000000000000000000000000000000000000000000815250611f2a565b8560cb908051906020019061128292919061278b565b508460cc908051906020019061129992919061278b565b506001846112a7919061325c565b60cd819055508260ce819055508160cf8190555080156113145760008060016101000a81548160ff0219169083151502179055507f7f26b83ff96e1f2b6a682f133852f6798a09c465da95921460cefb3847402498600160405161130b9190613790565b60405180910390a15b505050505050565b60ce5481565b61132a611da5565b611332611322565b565b6000609760009054906101000a900473ffffffffffffffffffffffffffffffffffffffff16905090565b60606066805461136d90613045565b80601f016020809104026020016040519081016040528092919081815260200182805461139990613045565b80156113e65780601f106113bb576101008083540402835291602001916113e6565b820191906000526020600020905b8154815290600101906020018083116113c957829003601f168201915b5050505050905090565b60d0602052816000526040600020818154811061140c57600080fd5b90600052602060002001600091509150505481565b61143361142c6119e8565b8383611f87565b5050565b600060cd54905090565b61145261144c6119e8565b83611aa9565b611491576040517f08c379a00000000000000000000000000000000000000000000000000000000081526004016114889061334d565b60405180910390fd5b61149d848484846120f4565b50505050565b6114ac83611052565b8110156114ee576040517f08c379a00000000000000000000000000000000000000000000000000000000081526004016114e5906137f7565b60405180910390fd5b60ce54816114fc919061346b565b34101561153e576040517f08c379a000000000000000000000000000000000000000000000000000000000815260040161153590613511565b60405180910390fd5b60005b81811161168c57600060d060008673ffffffffffffffffffffffffffffffffffffffff1673ffffffffffffffffffffffffffffffffffffffff168152602001908152602001600020828154811061159b5761159a613817565b5b906000526020600020015490506115b3858583611b3e565b60d060008673ffffffffffffffffffffffffffffffffffffffff1673ffffffffffffffffffffffffffffffffffffffff168152602001908152602001600020828154811061160457611603613817565b5b906000526020600020016000905560d060008573ffffffffffffffffffffffffffffffffffffffff1673ffffffffffffffffffffffffffffffffffffffff16815260200190815260200160002081908060018154018082558091505060019003906000526020600020016000909190919091505550808061168490613531565b915050611541565b508060d160008573ffffffffffffffffffffffffffffffffffffffff1673ffffffffffffffffffffffffffffffffffffffff16815260200190815260200160002060008282546116dc919061357a565b925050819055508273ffffffffffffffffffffffffffffffffffffffff166108fc349081150290604051600060405180830381858888f19350505050158015611729573d6000803e3d6000fd5b507f3844b7075ed6e7d4b61342769cb2b1b325cba410a62932affaa90aee247dadf583838360405161175d9392919061389b565b60405180910390a17fc25588f31844afdf30d95c167a6a5cb3541c5f0194678bb58703259d42cb20608383836040516117989392919061389b565b60405180910390a1505050565b60606117b08261199d565b60006117ba612150565b905060008151116117da5760405180602001604052806000815250611805565b806117e484612167565b6040516020016117f592919061390e565b6040516020818303038152906040525b915050919050565b600060ce54905090565b60cd5481565b60cf5481565b6000606a60008473ffffffffffffffffffffffffffffffffffffffff1673ffffffffffffffffffffffffffffffffffffffff16815260200190815260200160002060008373ffffffffffffffffffffffffffffffffffffffff1673ffffffffffffffffffffffffffffffffffffffff16815260200190815260200160002060009054906101000a900460ff16905092915050565b600073ffffffffffffffffffffffffffffffffffffffff168173ffffffffffffffffffffffffffffffffffffffff161415611927576040517f08c379a000000000000000000000000000000000000000000000000000000000815260040161191e906139a4565b60405180910390fd5b61193081611e41565b50565b60007f01ffc9a7000000000000000000000000000000000000000000000000000000007bffffffffffffffffffffffffffffffffffffffffffffffffffffffff1916827bffffffffffffffffffffffffffffffffffffffffffffffffffffffff1916149050919050565b6119a6816122c8565b6119e5576040517f08c379a00000000000000000000000000000000000000000000000000000000081526004016119dc906135fa565b60405180910390fd5b50565b600033905090565b816069600083815260200190815260200160002060006101000a81548173ffffffffffffffffffffffffffffffffffffffff021916908373ffffffffffffffffffffffffffffffffffffffff160217905550808273ffffffffffffffffffffffffffffffffffffffff16611a6383610e84565b73ffffffffffffffffffffffffffffffffffffffff167f8c5be1e5ebec7d5bd14f71427d1e84f3dd0314c0f7b2291e5b200ac8c7c3b92560405160405180910390a45050565b600080611ab583610e84565b90508073ffffffffffffffffffffffffffffffffffffffff168473ffffffffffffffffffffffffffffffffffffffff161480611af75750611af68185611823565b5b80611b3557508373ffffffffffffffffffffffffffffffffffffffff16611b1d846108ac565b73ffffffffffffffffffffffffffffffffffffffff16145b91505092915050565b8273ffffffffffffffffffffffffffffffffffffffff16611b5e82610e84565b73ffffffffffffffffffffffffffffffffffffffff1614611bb4576040517f08c379a0000000000000000000000000000000000000000000000000000000008152600401611bab90613a36565b60405180910390fd5b600073ffffffffffffffffffffffffffffffffffffffff168273ffffffffffffffffffffffffffffffffffffffff161415611c24576040517f08c379a0000000000000000000000000000000000000000000000000000000008152600401611c1b90613ac8565b60405180910390fd5b611c2f838383612334565b611c3a6000826119f0565b6001606860008573ffffffffffffffffffffffffffffffffffffffff1673ffffffffffffffffffffffffffffffffffffffff1681526020019081526020016000206000828254611c8a919061357a565b925050819055506001606860008473ffffffffffffffffffffffffffffffffffffffff1673ffffffffffffffffffffffffffffffffffffffff1681526020019081526020016000206000828254611ce1919061325c565b92505081905550816067600083815260200190815260200160002060006101000a81548173ffffffffffffffffffffffffffffffffffffffff021916908373ffffffffffffffffffffffffffffffffffffffff160217905550808273ffffffffffffffffffffffffffffffffffffffff168473ffffffffffffffffffffffffffffffffffffffff167fddf252ad1be2c89b69c2b068fc378daa952ba7f163c4a11628f55a4df523b3ef60405160405180910390a4611da0838383612339565b505050565b611dad6119e8565b73ffffffffffffffffffffffffffffffffffffffff16611dcb611334565b73ffffffffffffffffffffffffffffffffffffffff1614611e21576040517f08c379a0000000000000000000000000000000000000000000000000000000008152600401611e1890613b34565b60405180910390fd5b565b611e3d82826040518060200160405280600081525061233e565b5050565b6000609760009054906101000a900473ffffffffffffffffffffffffffffffffffffffff16905081609760006101000a81548173ffffffffffffffffffffffffffffffffffffffff021916908373ffffffffffffffffffffffffffffffffffffffff1602179055508173ffffffffffffffffffffffffffffffffffffffff168173ffffffffffffffffffffffffffffffffffffffff167f8be0079c531659141344cd1fd0a4f28419497f9722a3daafe3b4186f6b6457e060405160405180910390a35050565b6000808273ffffffffffffffffffffffffffffffffffffffff163b119050919050565b600060019054906101000a900460ff16611f79576040517f08c379a0000000000000000000000000000000000000000000000000000000008152600401611f7090613bc6565b60405180910390fd5b611f838282612399565b5050565b8173ffffffffffffffffffffffffffffffffffffffff168373ffffffffffffffffffffffffffffffffffffffff161415611ff6576040517f08c379a0000000000000000000000000000000000000000000000000000000008152600401611fed90613c32565b60405180910390fd5b80606a60008573ffffffffffffffffffffffffffffffffffffffff1673ffffffffffffffffffffffffffffffffffffffff16815260200190815260200160002060008473ffffffffffffffffffffffffffffffffffffffff1673ffffffffffffffffffffffffffffffffffffffff16815260200190815260200160002060006101000a81548160ff0219169083151502179055508173ffffffffffffffffffffffffffffffffffffffff168373ffffffffffffffffffffffffffffffffffffffff167f17307eab39ab6107e8899845ad3d59bd9653f200f220920489ca2b5937696c31836040516120e791906128e2565b60405180910390a3505050565b6120ff848484611b3e565b61210b8484848461241a565b61214a576040517f08c379a000000000000000000000000000000000000000000000000000000000815260040161214190613cc4565b60405180910390fd5b50505050565b606060405180602001604052806000815250905090565b606060008214156121af576040518060400160405280600181526020017f300000000000000000000000000000000000000000000000000000000000000081525090506122c3565b600082905060005b600082146121e15780806121ca90613531565b915050600a826121da9190613d13565b91506121b7565b60008167ffffffffffffffff8111156121fd576121fc612c15565b5b6040519080825280601f01601f19166020018201604052801561222f5781602001600182028036833780820191505090505b5090505b600085146122bc57600182612248919061357a565b9150600a856122579190613d44565b6030612263919061325c565b60f81b81838151811061227957612278613817565b5b60200101907effffffffffffffffffffffffffffffffffffffffffffffffffffffffffffff1916908160001a905350600a856122b59190613d13565b9450612233565b8093505050505b919050565b60008073ffffffffffffffffffffffffffffffffffffffff166067600084815260200190815260200160002060009054906101000a900473ffffffffffffffffffffffffffffffffffffffff1673ffffffffffffffffffffffffffffffffffffffff1614159050919050565b505050565b505050565b61234883836125b1565b612355600084848461241a565b612394576040517f08c379a000000000000000000000000000000000000000000000000000000000815260040161238b90613cc4565b60405180910390fd5b505050565b600060019054906101000a900460ff166123e8576040517f08c379a00000000000000000000000000000000000000000000000000000000081526004016123df90613bc6565b60405180910390fd5b81606590805190602001906123fe92919061278b565b50806066908051906020019061241592919061278b565b505050565b600061243b8473ffffffffffffffffffffffffffffffffffffffff16611f07565b156125a4578373ffffffffffffffffffffffffffffffffffffffff1663150b7a026124646119e8565b8786866040518563ffffffff1660e01b81526004016124869493929190613dca565b602060405180830381600087803b1580156124a057600080fd5b505af19250505080156124d157506040513d601f19601f820116820180604052508101906124ce9190613e2b565b60015b612554573d8060008114612501576040519150601f19603f3d011682016040523d82523d6000602084013e612506565b606091505b5060008151141561254c576040517f08c379a000000000000000000000000000000000000000000000000000000000815260040161254390613cc4565b60405180910390fd5b805181602001fd5b63150b7a0260e01b7bffffffffffffffffffffffffffffffffffffffffffffffffffffffff1916817bffffffffffffffffffffffffffffffffffffffffffffffffffffffff1916149150506125a9565b600190505b949350505050565b600073ffffffffffffffffffffffffffffffffffffffff168273ffffffffffffffffffffffffffffffffffffffff161415612621576040517f08c379a000000000000000000000000000000000000000000000000000000000815260040161261890613ea4565b60405180910390fd5b61262a816122c8565b1561266a576040517f08c379a000000000000000000000000000000000000000000000000000000000815260040161266190613f10565b60405180910390fd5b61267660008383612334565b6001606860008473ffffffffffffffffffffffffffffffffffffffff1673ffffffffffffffffffffffffffffffffffffffff16815260200190815260200160002060008282546126c6919061325c565b92505081905550816067600083815260200190815260200160002060006101000a81548173ffffffffffffffffffffffffffffffffffffffff021916908373ffffffffffffffffffffffffffffffffffffffff160217905550808273ffffffffffffffffffffffffffffffffffffffff16600073ffffffffffffffffffffffffffffffffffffffff167fddf252ad1be2c89b69c2b068fc378daa952ba7f163c4a11628f55a4df523b3ef60405160405180910390a461278760008383612339565b5050565b82805461279790613045565b90600052602060002090601f0160209004810192826127b95760008555612800565b82601f106127d257805160ff1916838001178555612800565b82800160010185558215612800579182015b828111156127ff5782518255916020019190600101906127e4565b5b50905061280d9190612811565b5090565b5b8082111561282a576000816000905550600101612812565b5090565b6000604051905090565b600080fd5b600080fd5b60007fffffffff0000000000000000000000000000000000000000000000000000000082169050919050565b61287781612842565b811461288257600080fd5b50565b6000813590506128948161286e565b92915050565b6000602082840312156128b0576128af612838565b5b60006128be84828501612885565b91505092915050565b60008115159050919050565b6128dc816128c7565b82525050565b60006020820190506128f760008301846128d3565b92915050565b600081519050919050565b600082825260208201905092915050565b60005b8381101561293757808201518184015260208101905061291c565b83811115612946576000848401525b50505050565b6000601f19601f8301169050919050565b6000612968826128fd565b6129728185612908565b9350612982818560208601612919565b61298b8161294c565b840191505092915050565b600060208201905081810360008301526129b0818461295d565b905092915050565b6000819050919050565b6129cb816129b8565b81146129d657600080fd5b50565b6000813590506129e8816129c2565b92915050565b600060208284031215612a0457612a03612838565b5b6000612a12848285016129d9565b91505092915050565b600073ffffffffffffffffffffffffffffffffffffffff82169050919050565b6000612a4682612a1b565b9050919050565b612a5681612a3b565b82525050565b6000602082019050612a716000830184612a4d565b92915050565b612a8081612a3b565b8114612a8b57600080fd5b50565b600081359050612a9d81612a77565b92915050565b60008060408385031215612aba57612ab9612838565b5b6000612ac885828601612a8e565b9250506020612ad9858286016129d9565b9150509250929050565b600080600060608486031215612afc57612afb612838565b5b6000612b0a86828701612a8e565b9350506020612b1b86828701612a8e565b9250506040612b2c868287016129d9565b9150509250925092565b600060208284031215612b4c57612b4b612838565b5b6000612b5a84828501612a8e565b91505092915050565b612b6c816129b8565b82525050565b6000602082019050612b876000830184612b63565b92915050565b6000612b9882612a1b565b9050919050565b612ba881612b8d565b8114612bb357600080fd5b50565b600081359050612bc581612b9f565b92915050565b60008060408385031215612be257612be1612838565b5b6000612bf085828601612bb6565b9250506020612c01858286016129d9565b9150509250929050565b600080fd5b600080fd5b7f4e487b7100000000000000000000000000000000000000000000000000000000600052604160045260246000fd5b612c4d8261294c565b810181811067ffffffffffffffff82111715612c6c57612c6b612c15565b5b80604052505050565b6000612c7f61282e565b9050612c8b8282612c44565b919050565b600067ffffffffffffffff821115612cab57612caa612c15565b5b612cb48261294c565b9050602081019050919050565b82818337600083830152505050565b6000612ce3612cde84612c90565b612c75565b905082815260208101848484011115612cff57612cfe612c10565b5b612d0a848285612cc1565b509392505050565b600082601f830112612d2757612d26612c0b565b5b8135612d37848260208601612cd0565b91505092915050565b600080600080600060a08688031215612d5c57612d5b612838565b5b600086013567ffffffffffffffff811115612d7a57612d7961283d565b5b612d8688828901612d12565b955050602086013567ffffffffffffffff811115612da757612da661283d565b5b612db388828901612d12565b9450506040612dc4888289016129d9565b9350506060612dd5888289016129d9565b9250506080612de6888289016129d9565b9150509295509295909350565b612dfc816128c7565b8114612e0757600080fd5b50565b600081359050612e1981612df3565b92915050565b60008060408385031215612e3657612e35612838565b5b6000612e4485828601612a8e565b9250506020612e5585828601612e0a565b9150509250929050565b600067ffffffffffffffff821115612e7a57612e79612c15565b5b612e838261294c565b9050602081019050919050565b6000612ea3612e9e84612e5f565b612c75565b905082815260208101848484011115612ebf57612ebe612c10565b5b612eca848285612cc1565b509392505050565b600082601f830112612ee757612ee6612c0b565b5b8135612ef7848260208601612e90565b91505092915050565b60008060008060808587031215612f1a57612f19612838565b5b6000612f2887828801612a8e565b9450506020612f3987828801612a8e565b9350506040612f4a878288016129d9565b925050606085013567ffffffffffffffff811115612f6b57612f6a61283d565b5b612f7787828801612ed2565b91505092959194509250565b600080600060608486031215612f9c57612f9b612838565b5b6000612faa86828701612bb6565b9350506020612fbb86828701612a8e565b9250506040612fcc868287016129d9565b9150509250925092565b60008060408385031215612fed57612fec612838565b5b6000612ffb85828601612a8e565b925050602061300c85828601612a8e565b9150509250929050565b7f4e487b7100000000000000000000000000000000000000000000000000000000600052602260045260246000fd5b6000600282049050600182168061305d57607f821691505b6020821081141561307157613070613016565b5b50919050565b7f4552433732313a20617070726f76616c20746f2063757272656e74206f776e6560008201527f7200000000000000000000000000000000000000000000000000000000000000602082015250565b60006130d3602183612908565b91506130de82613077565b604082019050919050565b60006020820190508181036000830152613102816130c6565b9050919050565b7f4552433732313a20617070726f76652063616c6c6572206973206e6f7420746f60008201527f6b656e206f776e6572206e6f7220617070726f76656420666f7220616c6c0000602082015250565b6000613165603e83612908565b915061317082613109565b604082019050919050565b6000602082019050818103600083015261319481613158565b9050919050565b7f596f7520646f6e74206861766520656e6f7567682073686172657320696e207960008201527f6f75722077616c6c657400000000000000000000000000000000000000000000602082015250565b60006131f7602a83612908565b91506132028261319b565b604082019050919050565b60006020820190508181036000830152613226816131ea565b9050919050565b7f4e487b7100000000000000000000000000000000000000000000000000000000600052601160045260246000fd5b6000613267826129b8565b9150613272836129b8565b9250827fffffffffffffffffffffffffffffffffffffffffffffffffffffffffffffffff038211156132a7576132a661322d565b5b828201905092915050565b60006040820190506132c76000830185612a4d565b6132d46020830184612b63565b9392505050565b7f4552433732313a2063616c6c6572206973206e6f7420746f6b656e206f776e6560008201527f72206e6f7220617070726f766564000000000000000000000000000000000000602082015250565b6000613337602e83612908565b9150613342826132db565b604082019050919050565b600060208201905081810360008301526133668161332a565b9050919050565b7f4e6f7420656e6f75676820737570706c792072656d61696e696e670000000000600082015250565b60006133a3601b83612908565b91506133ae8261336d565b602082019050919050565b600060208201905081810360008301526133d281613396565b9050919050565b7f6e6f2d6f6620746f6b656e73206172652067726561746572207468616e20746f60008201527f6b656e50657257616c6c65740000000000000000000000000000000000000000602082015250565b6000613435602c83612908565b9150613440826133d9565b604082019050919050565b6000602082019050818103600083015261346481613428565b9050919050565b6000613476826129b8565b9150613481836129b8565b9250817fffffffffffffffffffffffffffffffffffffffffffffffffffffffffffffffff04831182151516156134ba576134b961322d565b5b828202905092915050565b7f6e6f7420656e6f7567682076616c75652073656e640000000000000000000000600082015250565b60006134fb601583612908565b9150613506826134c5565b602082019050919050565b6000602082019050818103600083015261352a816134ee565b9050919050565b600061353c826129b8565b91507fffffffffffffffffffffffffffffffffffffffffffffffffffffffffffffffff82141561356f5761356e61322d565b5b600182019050919050565b6000613585826129b8565b9150613590836129b8565b9250828210156135a3576135a261322d565b5b828203905092915050565b7f4552433732313a20696e76616c696420746f6b656e2049440000000000000000600082015250565b60006135e4601883612908565b91506135ef826135ae565b602082019050919050565b60006020820190508181036000830152613613816135d7565b9050919050565b7f4552433732313a2061646472657373207a65726f206973206e6f74206120766160008201527f6c6964206f776e65720000000000000000000000000000000000000000000000602082015250565b6000613676602983612908565b91506136818261361a565b604082019050919050565b600060208201905081810360008301526136a581613669565b9050919050565b7f496e697469616c697a61626c653a20636f6e747261637420697320616c72656160008201527f647920696e697469616c697a6564000000000000000000000000000000000000602082015250565b6000613708602e83612908565b9150613713826136ac565b604082019050919050565b60006020820190508181036000830152613737816136fb565b9050919050565b6000819050919050565b600060ff82169050919050565b6000819050919050565b600061377a6137756137708461373e565b613755565b613748565b9050919050565b61378a8161375f565b82525050565b60006020820190506137a56000830184613781565b92915050565b7f596f7520646f6e74206861766520656e6f75676820746f6b656e730000000000600082015250565b60006137e1601b83612908565b91506137ec826137ab565b602082019050919050565b60006020820190508181036000830152613810816137d4565b9050919050565b7f4e487b7100000000000000000000000000000000000000000000000000000000600052603260045260246000fd5b600061386161385c61385784612a1b565b613755565b612a1b565b9050919050565b600061387382613846565b9050919050565b600061388582613868565b9050919050565b6138958161387a565b82525050565b60006060820190506138b0600083018661388c565b6138bd6020830185612a4d565b6138ca6040830184612b63565b949350505050565b600081905092915050565b60006138e8826128fd565b6138f281856138d2565b9350613902818560208601612919565b80840191505092915050565b600061391a82856138dd565b915061392682846138dd565b91508190509392505050565b7f4f776e61626c653a206e6577206f776e657220697320746865207a65726f206160008201527f6464726573730000000000000000000000000000000000000000000000000000602082015250565b600061398e602683612908565b915061399982613932565b604082019050919050565b600060208201905081810360008301526139bd81613981565b9050919050565b7f4552433732313a207472616e736665722066726f6d20696e636f72726563742060008201527f6f776e6572000000000000000000000000000000000000000000000000000000602082015250565b6000613a20602583612908565b9150613a2b826139c4565b604082019050919050565b60006020820190508181036000830152613a4f81613a13565b9050919050565b7f4552433732313a207472616e7366657220746f20746865207a65726f2061646460008201527f7265737300000000000000000000000000000000000000000000000000000000602082015250565b6000613ab2602483612908565b9150613abd82613a56565b604082019050919050565b60006020820190508181036000830152613ae181613aa5565b9050919050565b7f4f776e61626c653a2063616c6c6572206973206e6f7420746865206f776e6572600082015250565b6000613b1e602083612908565b9150613b2982613ae8565b602082019050919050565b60006020820190508181036000830152613b4d81613b11565b9050919050565b7f496e697469616c697a61626c653a20636f6e7472616374206973206e6f74206960008201527f6e697469616c697a696e67000000000000000000000000000000000000000000602082015250565b6000613bb0602b83612908565b9150613bbb82613b54565b604082019050919050565b60006020820190508181036000830152613bdf81613ba3565b9050919050565b7f4552433732313a20617070726f766520746f2063616c6c657200000000000000600082015250565b6000613c1c601983612908565b9150613c2782613be6565b602082019050919050565b60006020820190508181036000830152613c4b81613c0f565b9050919050565b7f4552433732313a207472616e7366657220746f206e6f6e20455243373231526560008201527f63656976657220696d706c656d656e7465720000000000000000000000000000602082015250565b6000613cae603283612908565b9150613cb982613c52565b604082019050919050565b60006020820190508181036000830152613cdd81613ca1565b9050919050565b7f4e487b7100000000000000000000000000000000000000000000000000000000600052601260045260246000fd5b6000613d1e826129b8565b9150613d29836129b8565b925082613d3957613d38613ce4565b5b828204905092915050565b6000613d4f826129b8565b9150613d5a836129b8565b925082613d6a57613d69613ce4565b5b828206905092915050565b600081519050919050565b600082825260208201905092915050565b6000613d9c82613d75565b613da68185613d80565b9350613db6818560208601612919565b613dbf8161294c565b840191505092915050565b6000608082019050613ddf6000830187612a4d565b613dec6020830186612a4d565b613df96040830185612b63565b8181036060830152613e0b8184613d91565b905095945050505050565b600081519050613e258161286e565b92915050565b600060208284031215613e4157613e40612838565b5b6000613e4f84828501613e16565b91505092915050565b7f4552433732313a206d696e7420746f20746865207a65726f2061646472657373600082015250565b6000613e8e602083612908565b9150613e9982613e58565b602082019050919050565b60006020820190508181036000830152613ebd81613e81565b9050919050565b7f4552433732313a20746f6b656e20616c7265616479206d696e74656400000000600082015250565b6000613efa601c83612908565b9150613f0582613ec4565b602082019050919050565b60006020820190508181036000830152613f2981613eed565b905091905056fea2646970667358221220761696fef57c37a4613fc0d40dd77bd9ae67987fca8a8c72d6957a76d98ff66764736f6c63430008090033",
  "linkReferences": {},
  "deployedLinkReferences": {}
}